{
  "contractName": "LandRegistry",
  "abi": [
    {
      "anonymous": false,
      "inputs": [
        {
          "indexed": true,
          "internalType": "uint256",
          "name": "landId",
          "type": "uint256"
        },
        {
          "indexed": false,
          "internalType": "uint256",
          "name": "price",
          "type": "uint256"
        }
      ],
      "name": "LandListedForSale",
      "type": "event"
    },
    {
      "anonymous": false,
      "inputs": [
        {
          "indexed": true,
          "internalType": "uint256",
          "name": "landId",
          "type": "uint256"
        },
        {
          "indexed": false,
          "internalType": "address",
          "name": "owner",
          "type": "address"
        },
        {
          "indexed": false,
          "internalType": "string",
          "name": "location",
          "type": "string"
        }
      ],
      "name": "LandRegistered",
      "type": "event"
    },
    {
      "anonymous": false,
      "inputs": [
        {
          "indexed": true,
          "internalType": "uint256",
          "name": "landId",
          "type": "uint256"
        },
        {
          "indexed": false,
          "internalType": "address",
          "name": "from",
          "type": "address"
        },
        {
          "indexed": false,
          "internalType": "address",
          "name": "to",
          "type": "address"
        }
      ],
      "name": "LandTransferred",
      "type": "event"
    },
    {
      "inputs": [],
      "name": "landCounter",
      "outputs": [
        {
          "internalType": "uint256",
          "name": "",
          "type": "uint256"
        }
      ],
      "stateMutability": "view",
      "type": "function",
      "constant": true
    },
    {
      "inputs": [
        {
          "internalType": "uint256",
          "name": "",
          "type": "uint256"
        }
      ],
      "name": "lands",
      "outputs": [
        {
          "internalType": "uint256",
          "name": "id",
          "type": "uint256"
        },
        {
          "internalType": "address",
          "name": "owner",
          "type": "address"
        },
        {
          "internalType": "string",
          "name": "location",
          "type": "string"
        },
        {
          "internalType": "uint256",
          "name": "area",
          "type": "uint256"
        },
        {
          "internalType": "bool",
          "name": "isForSale",
          "type": "bool"
        },
        {
          "internalType": "uint256",
          "name": "price",
          "type": "uint256"
        }
      ],
      "stateMutability": "view",
      "type": "function",
      "constant": true
    },
    {
      "inputs": [
        {
          "internalType": "address",
          "name": "",
          "type": "address"
        },
        {
          "internalType": "uint256",
          "name": "",
          "type": "uint256"
        }
      ],
      "name": "ownedLands",
      "outputs": [
        {
          "internalType": "uint256",
          "name": "",
          "type": "uint256"
        }
      ],
      "stateMutability": "view",
      "type": "function",
      "constant": true
    },
    {
      "inputs": [
        {
          "internalType": "string",
          "name": "_location",
          "type": "string"
        },
        {
          "internalType": "uint256",
          "name": "_area",
          "type": "uint256"
        }
      ],
      "name": "registerLand",
      "outputs": [],
      "stateMutability": "nonpayable",
      "type": "function"
    },
    {
      "inputs": [
        {
          "internalType": "uint256",
          "name": "_landId",
          "type": "uint256"
        },
        {
          "internalType": "uint256",
          "name": "_price",
          "type": "uint256"
        }
      ],
      "name": "listLandForSale",
      "outputs": [],
      "stateMutability": "nonpayable",
      "type": "function"
    },
    {
      "inputs": [
        {
          "internalType": "uint256",
          "name": "_landId",
          "type": "uint256"
        },
        {
          "internalType": "address",
          "name": "_newOwner",
          "type": "address"
        }
      ],
      "name": "transferLand",
      "outputs": [],
      "stateMutability": "nonpayable",
      "type": "function"
    },
    {
      "inputs": [
        {
          "internalType": "uint256",
          "name": "_landId",
          "type": "uint256"
        }
      ],
      "name": "buyLand",
      "outputs": [],
      "stateMutability": "payable",
      "type": "function",
      "payable": true
    },
    {
      "inputs": [
        {
          "internalType": "address",
          "name": "_owner",
          "type": "address"
        }
      ],
      "name": "getLandsByOwner",
      "outputs": [
        {
          "components": [
            {
              "internalType": "uint256",
              "name": "id",
              "type": "uint256"
            },
            {
              "internalType": "address",
              "name": "owner",
              "type": "address"
            },
            {
              "internalType": "string",
              "name": "location",
              "type": "string"
            },
            {
              "internalType": "uint256",
              "name": "area",
              "type": "uint256"
            },
            {
              "internalType": "bool",
              "name": "isForSale",
              "type": "bool"
            },
            {
              "internalType": "uint256",
              "name": "price",
              "type": "uint256"
            }
          ],
          "internalType": "struct LandRegistry.Land[]",
          "name": "",
          "type": "tuple[]"
        }
      ],
      "stateMutability": "view",
      "type": "function",
      "constant": true
    },
    {
      "inputs": [],
      "name": "getLandsForSale",
      "outputs": [
        {
          "components": [
            {
              "internalType": "uint256",
              "name": "id",
              "type": "uint256"
            },
            {
              "internalType": "address",
              "name": "owner",
              "type": "address"
            },
            {
              "internalType": "string",
              "name": "location",
              "type": "string"
            },
            {
              "internalType": "uint256",
              "name": "area",
              "type": "uint256"
            },
            {
              "internalType": "bool",
              "name": "isForSale",
              "type": "bool"
            },
            {
              "internalType": "uint256",
              "name": "price",
              "type": "uint256"
            }
          ],
          "internalType": "struct LandRegistry.Land[]",
          "name": "",
          "type": "tuple[]"
        }
      ],
      "stateMutability": "view",
      "type": "function",
      "constant": true
    }
  ],
  "bytecode": "0x608060405234801561001057600080fd5b50611c8d806100206000396000f3fe6080604052600436106100865760003560e01c8063ce924ed911610059578063ce924ed914610159578063ced3955814610182578063e261f1e51461019e578063f6c1b992146101e0578063fd1a8fef1461020b57610086565b8063455b9d231461008b5780639e29ce18146100c8578063b6f84991146100f3578063c798ff7d14610130575b600080fd5b34801561009757600080fd5b506100b260048036038101906100ad91906113d5565b610234565b6040516100bf9190611866565b60405180910390f35b3480156100d457600080fd5b506100dd610533565b6040516100ea9190611908565b60405180910390f35b3480156100ff57600080fd5b5061011a600480360381019061011591906113fe565b610539565b6040516101279190611908565b60405180910390f35b34801561013c57600080fd5b50610157600480360381019061015291906114b7565b61056a565b005b34801561016557600080fd5b50610180600480360381019061017b919061143a565b61070f565b005b61019c6004803603810190610197919061148e565b6108d1565b005b3480156101aa57600080fd5b506101c560048036038101906101c0919061148e565b610b0c565b6040516101d796959493929190611923565b60405180910390f35b3480156101ec57600080fd5b506101f5610bfd565b6040516102029190611866565b60405180910390f35b34801561021757600080fd5b50610232600480360381019061022d91906114f3565b610f88565b005b60606000600160008473ffffffffffffffffffffffffffffffffffffffff1673ffffffffffffffffffffffffffffffffffffffff1681526020019081526020016000208054806020026020016040519081016040528092919081815260200182805480156102c157602002820191906000526020600020905b8154815260200190600101908083116102ad575b505050505090506000815167ffffffffffffffff81111561030b577f4e487b7100000000000000000000000000000000000000000000000000000000600052604160045260246000fd5b60405190808252806020026020018201604052801561034457816020015b610331611252565b8152602001906001900390816103295790505b50905060005b82518110156105285760008084838151811061038f577f4e487b7100000000000000000000000000000000000000000000000000000000600052603260045260246000fd5b602002602001015181526020019081526020016000206040518060c0016040529081600082015481526020016001820160009054906101000a900473ffffffffffffffffffffffffffffffffffffffff1673ffffffffffffffffffffffffffffffffffffffff1673ffffffffffffffffffffffffffffffffffffffff16815260200160028201805461042090611b10565b80601f016020809104026020016040519081016040528092919081815260200182805461044c90611b10565b80156104995780601f1061046e57610100808354040283529160200191610499565b820191906000526020600020905b81548152906001019060200180831161047c57829003601f168201915b50505050508152602001600382015481526020016004820160009054906101000a900460ff1615151515815260200160058201548152505082828151811061050a577f4e487b7100000000000000000000000000000000000000000000000000000000600052603260045260246000fd5b6020026020010181905250808061052090611b42565b91505061034a565b508092505050919050565b60025481565b6001602052816000526040600020818154811061055557600080fd5b90600052602060002001600091509150505481565b3373ffffffffffffffffffffffffffffffffffffffff1660008084815260200190815260200160002060010160009054906101000a900473ffffffffffffffffffffffffffffffffffffffff1673ffffffffffffffffffffffffffffffffffffffff161461060d576040517f08c379a0000000000000000000000000000000000000000000000000000000008152600401610604906118e8565b60405180910390fd5b61061733836110af565b8060008084815260200190815260200160002060010160006101000a81548173ffffffffffffffffffffffffffffffffffffffff021916908373ffffffffffffffffffffffffffffffffffffffff160217905550600160008273ffffffffffffffffffffffffffffffffffffffff1673ffffffffffffffffffffffffffffffffffffffff168152602001908152602001600020829080600181540180825580915050600190039060005260206000200160009091909190915055817f1080b2f211753e5090f26ef7ffdc6bb3e66a125c7290200d10b502160bb1f566338360405161070392919061180d565b60405180910390a25050565b6002600081548092919061072290611b42565b91905055506040518060c0016040528060025481526020013373ffffffffffffffffffffffffffffffffffffffff168152602001838152602001828152602001600015158152602001600081525060008060025481526020019081526020016000206000820151816000015560208201518160010160006101000a81548173ffffffffffffffffffffffffffffffffffffffff021916908373ffffffffffffffffffffffffffffffffffffffff16021790555060408201518160020190805190602001906107f19291906112a0565b506060820151816003015560808201518160040160006101000a81548160ff02191690831515021790555060a08201518160050155905050600160003373ffffffffffffffffffffffffffffffffffffffff1673ffffffffffffffffffffffffffffffffffffffff16815260200190815260200160002060025490806001815401808255809150506001900390600052602060002001600090919091909150556002547f9c4ad74928fec1ee86181680df0e76bf575b79ea2a0347f7ed270884bdd26ad733846040516108c5929190611836565b60405180910390a25050565b600080600083815260200190815260200160002090508060040160009054906101000a900460ff16610938576040517f08c379a000000000000000000000000000000000000000000000000000000000815260040161092f90611888565b60405180910390fd5b806005015434101561097f576040517f08c379a0000000000000000000000000000000000000000000000000000000008152600401610976906118a8565b60405180910390fd5b60008160010160009054906101000a900473ffffffffffffffffffffffffffffffffffffffff1690508073ffffffffffffffffffffffffffffffffffffffff166108fc83600501549081150290604051600060405180830381858888f193505050501580156109f2573d6000803e3d6000fd5b506109fd81846110af565b338260010160006101000a81548173ffffffffffffffffffffffffffffffffffffffff021916908373ffffffffffffffffffffffffffffffffffffffff16021790555060008260040160006101000a81548160ff02191690831515021790555060008260050181905550600160003373ffffffffffffffffffffffffffffffffffffffff1673ffffffffffffffffffffffffffffffffffffffff168152602001908152602001600020839080600181540180825580915050600190039060005260206000200160009091909190915055827f1080b2f211753e5090f26ef7ffdc6bb3e66a125c7290200d10b502160bb1f5668233604051610aff92919061180d565b60405180910390a2505050565b60006020528060005260406000206000915090508060000154908060010160009054906101000a900473ffffffffffffffffffffffffffffffffffffffff1690806002018054610b5b90611b10565b80601f0160208091040260200160405190810160405280929190818152602001828054610b8790611b10565b8015610bd45780601f10610ba957610100808354040283529160200191610bd4565b820191906000526020600020905b815481529060010190602001808311610bb757829003601f168201915b5050505050908060030154908060040160009054906101000a900460ff16908060050154905086565b6060600060025467ffffffffffffffff811115610c43577f4e487b7100000000000000000000000000000000000000000000000000000000600052604160045260246000fd5b604051908082528060200260200182016040528015610c7c57816020015b610c69611252565b815260200190600190039081610c615790505b509050600080600190505b6002548111610e5c5760008082815260200190815260200160002060040160009054906101000a900460ff1615610e49576000808281526020019081526020016000206040518060c0016040529081600082015481526020016001820160009054906101000a900473ffffffffffffffffffffffffffffffffffffffff1673ffffffffffffffffffffffffffffffffffffffff1673ffffffffffffffffffffffffffffffffffffffff168152602001600282018054610d4590611b10565b80601f0160208091040260200160405190810160405280929190818152602001828054610d7190611b10565b8015610dbe5780601f10610d9357610100808354040283529160200191610dbe565b820191906000526020600020905b815481529060010190602001808311610da157829003601f168201915b50505050508152602001600382015481526020016004820160009054906101000a900460ff16151515158152602001600582015481525050838381518110610e2f577f4e487b7100000000000000000000000000000000000000000000000000000000600052603260045260246000fd5b60200260200101819052508180610e4590611b42565b9250505b8080610e5490611b42565b915050610c87565b5060008167ffffffffffffffff811115610e9f577f4e487b7100000000000000000000000000000000000000000000000000000000600052604160045260246000fd5b604051908082528060200260200182016040528015610ed857816020015b610ec5611252565b815260200190600190039081610ebd5790505b50905060005b82811015610f7e57838181518110610f1f577f4e487b7100000000000000000000000000000000000000000000000000000000600052603260045260246000fd5b6020026020010151828281518110610f60577f4e487b7100000000000000000000000000000000000000000000000000000000600052603260045260246000fd5b60200260200101819052508080610f7690611b42565b915050610ede565b5080935050505090565b3373ffffffffffffffffffffffffffffffffffffffff1660008084815260200190815260200160002060010160009054906101000a900473ffffffffffffffffffffffffffffffffffffffff1673ffffffffffffffffffffffffffffffffffffffff161461102b576040517f08c379a0000000000000000000000000000000000000000000000000000000008152600401611022906118c8565b60405180910390fd5b600160008084815260200190815260200160002060040160006101000a81548160ff0219169083151502179055508060008084815260200190815260200160002060050181905550817fdea5c3193c68e6199b356e0ceac7970d0951be96d03378b29dbaf40b6e2f4334826040516110a39190611908565b60405180910390a25050565b6000600160008473ffffffffffffffffffffffffffffffffffffffff1673ffffffffffffffffffffffffffffffffffffffff168152602001908152602001600020905060005b818054905081101561124c578282828154811061113b577f4e487b7100000000000000000000000000000000000000000000000000000000600052603260045260246000fd5b9060005260206000200154141561123957816001838054905061115e9190611a52565b81548110611195577f4e487b7100000000000000000000000000000000000000000000000000000000600052603260045260246000fd5b90600052602060002001548282815481106111d9577f4e487b7100000000000000000000000000000000000000000000000000000000600052603260045260246000fd5b90600052602060002001819055508180548061121e577f4e487b7100000000000000000000000000000000000000000000000000000000600052603160045260246000fd5b6001900381819060005260206000200160009055905561124c565b808061124490611b42565b9150506110f5565b50505050565b6040518060c0016040528060008152602001600073ffffffffffffffffffffffffffffffffffffffff1681526020016060815260200160008152602001600015158152602001600081525090565b8280546112ac90611b10565b90600052602060002090601f0160209004810192826112ce5760008555611315565b82601f106112e757805160ff1916838001178555611315565b82800160010185558215611315579182015b828111156113145782518255916020019190600101906112f9565b5b5090506113229190611326565b5090565b5b8082111561133f576000816000905550600101611327565b5090565b6000611356611351846119bc565b61198b565b90508281526020810184848401111561136e57600080fd5b611379848285611ace565b509392505050565b60008135905061139081611c29565b92915050565b600082601f8301126113a757600080fd5b81356113b7848260208601611343565b91505092915050565b6000813590506113cf81611c40565b92915050565b6000602082840312156113e757600080fd5b60006113f584828501611381565b91505092915050565b6000806040838503121561141157600080fd5b600061141f85828601611381565b9250506020611430858286016113c0565b9150509250929050565b6000806040838503121561144d57600080fd5b600083013567ffffffffffffffff81111561146757600080fd5b61147385828601611396565b9250506020611484858286016113c0565b9150509250929050565b6000602082840312156114a057600080fd5b60006114ae848285016113c0565b91505092915050565b600080604083850312156114ca57600080fd5b60006114d8858286016113c0565b92505060206114e985828601611381565b9150509250929050565b6000806040838503121561150657600080fd5b6000611514858286016113c0565b9250506020611525858286016113c0565b9150509250929050565b600061153b8383611766565b905092915050565b61154c81611a86565b82525050565b61155b81611a86565b82525050565b600061156c826119fc565b6115768185611a1f565b935083602082028501611588856119ec565b8060005b858110156115c457848403895281516115a5858261152f565b94506115b083611a12565b925060208a0199505060018101905061158c565b50829750879550505050505092915050565b6115df81611a98565b82525050565b6115ee81611a98565b82525050565b60006115ff82611a07565b6116098185611a30565b9350611619818560208601611add565b61162281611c18565b840191505092915050565b600061163882611a07565b6116428185611a41565b9350611652818560208601611add565b61165b81611c18565b840191505092915050565b6000611673601483611a41565b91507f4c616e64206973206e6f7420666f722073616c650000000000000000000000006000830152602082019050919050565b60006116b3601283611a41565b91507f496e73756666696369656e742066756e647300000000000000000000000000006000830152602082019050919050565b60006116f3601883611a41565b91507f4f6e6c79206f776e65722063616e206c697374206c616e6400000000000000006000830152602082019050919050565b6000611733601783611a41565b91507f4f6e6c79206f776e65722063616e207472616e736665720000000000000000006000830152602082019050919050565b600060c08301600083015161177e60008601826117ef565b5060208301516117916020860182611543565b50604083015184820360408601526117a982826115f4565b91505060608301516117be60608601826117ef565b5060808301516117d160808601826115d6565b5060a08301516117e460a08601826117ef565b508091505092915050565b6117f881611ac4565b82525050565b61180781611ac4565b82525050565b60006040820190506118226000830185611552565b61182f6020830184611552565b9392505050565b600060408201905061184b6000830185611552565b818103602083015261185d818461162d565b90509392505050565b600060208201905081810360008301526118808184611561565b905092915050565b600060208201905081810360008301526118a181611666565b9050919050565b600060208201905081810360008301526118c1816116a6565b9050919050565b600060208201905081810360008301526118e1816116e6565b9050919050565b6000602082019050818103600083015261190181611726565b9050919050565b600060208201905061191d60008301846117fe565b92915050565b600060c08201905061193860008301896117fe565b6119456020830188611552565b8181036040830152611957818761162d565b905061196660608301866117fe565b61197360808301856115e5565b61198060a08301846117fe565b979650505050505050565b6000604051905081810181811067ffffffffffffffff821117156119b2576119b1611be9565b5b8060405250919050565b600067ffffffffffffffff8211156119d7576119d6611be9565b5b601f19601f8301169050602081019050919050565b6000819050602082019050919050565b600081519050919050565b600081519050919050565b6000602082019050919050565b600082825260208201905092915050565b600082825260208201905092915050565b600082825260208201905092915050565b6000611a5d82611ac4565b9150611a6883611ac4565b925082821015611a7b57611a7a611b8b565b5b828203905092915050565b6000611a9182611aa4565b9050919050565b60008115159050919050565b600073ffffffffffffffffffffffffffffffffffffffff82169050919050565b6000819050919050565b82818337600083830152505050565b60005b83811015611afb578082015181840152602081019050611ae0565b83811115611b0a576000848401525b50505050565b60006002820490506001821680611b2857607f821691505b60208210811415611b3c57611b3b611bba565b5b50919050565b6000611b4d82611ac4565b91507fffffffffffffffffffffffffffffffffffffffffffffffffffffffffffffffff821415611b8057611b7f611b8b565b5b600182019050919050565b7f4e487b7100000000000000000000000000000000000000000000000000000000600052601160045260246000fd5b7f4e487b7100000000000000000000000000000000000000000000000000000000600052602260045260246000fd5b7f4e487b7100000000000000000000000000000000000000000000000000000000600052604160045260246000fd5b6000601f19601f8301169050919050565b611c3281611a86565b8114611c3d57600080fd5b50565b611c4981611ac4565b8114611c5457600080fd5b5056fea2646970667358221220a0efa45229078618b3532c15865337a077a00ee336da8b4edeb201b847992c7a64736f6c63430008000033",
  "immutableReferences": {},
  "source": "// SPDX-License-Identifier: MIT\r\npragma solidity ^0.8.0;\r\n\r\ncontract LandRegistry {\r\n    struct Land {\r\n        uint256 id;\r\n        address owner;\r\n        string location;\r\n        uint256 area;\r\n        bool isForSale;\r\n        uint256 price;\r\n    }\r\n\r\n    mapping(uint256 => Land) public lands;\r\n    mapping(address => uint256[]) public ownedLands;\r\n    uint256 public landCounter;\r\n\r\n    event LandRegistered(uint256 indexed landId, address owner, string location);\r\n    event LandListedForSale(uint256 indexed landId, uint256 price);\r\n    event LandTransferred(uint256 indexed landId, address from, address to);\r\n\r\n    // Register a new land\r\n    function registerLand(string memory _location, uint256 _area) public {\r\n        landCounter++;\r\n        \r\n        lands[landCounter] = Land({\r\n            id: landCounter,\r\n            owner: msg.sender,\r\n            location: _location,\r\n            area: _area,\r\n            isForSale: false,\r\n            price: 0\r\n        });\r\n\r\n        ownedLands[msg.sender].push(landCounter);\r\n\r\n        emit LandRegistered(landCounter, msg.sender, _location);\r\n    }\r\n\r\n    // List land for sale\r\n    function listLandForSale(uint256 _landId, uint256 _price) public {\r\n        require(lands[_landId].owner == msg.sender, \"Only owner can list land\");\r\n        \r\n        lands[_landId].isForSale = true;\r\n        lands[_landId].price = _price;\r\n\r\n        emit LandListedForSale(_landId, _price);\r\n    }\r\n\r\n    // Transfer land to another address\r\n    function transferLand(uint256 _landId, address _newOwner) public {\r\n        require(lands[_landId].owner == msg.sender, \"Only owner can transfer\");\r\n        \r\n        // Remove from current owner's list\r\n        _removeLandFromOwner(msg.sender, _landId);\r\n        \r\n        // Update ownership\r\n        lands[_landId].owner = _newOwner;\r\n        \r\n        // Add to new owner's list\r\n        ownedLands[_newOwner].push(_landId);\r\n\r\n        emit LandTransferred(_landId, msg.sender, _newOwner);\r\n    }\r\n\r\n    // Buy land that is for sale\r\n    function buyLand(uint256 _landId) public payable {\r\n        Land storage land = lands[_landId];\r\n        \r\n        require(land.isForSale, \"Land is not for sale\");\r\n        require(msg.value >= land.price, \"Insufficient funds\");\r\n\r\n        address previousOwner = land.owner;\r\n\r\n        // Transfer funds to previous owner\r\n        payable(previousOwner).transfer(land.price);\r\n\r\n        // Remove land from previous owner\r\n        _removeLandFromOwner(previousOwner, _landId);\r\n\r\n        // Update land ownership\r\n        land.owner = msg.sender;\r\n        land.isForSale = false;\r\n        land.price = 0;\r\n\r\n        // Add to new owner's list\r\n        ownedLands[msg.sender].push(_landId);\r\n\r\n        emit LandTransferred(_landId, previousOwner, msg.sender);\r\n    }\r\n\r\n    // Get lands owned by an address\r\n    function getLandsByOwner(address _owner) public view returns (Land[] memory) {\r\n        uint256[] memory landIds = ownedLands[_owner];\r\n        Land[] memory ownerLands = new Land[](landIds.length);\r\n\r\n        for (uint256 i = 0; i < landIds.length; i++) {\r\n            ownerLands[i] = lands[landIds[i]];\r\n        }\r\n\r\n        return ownerLands;\r\n    }\r\n\r\n    // Get lands for sale\r\n    function getLandsForSale() public view returns (Land[] memory) {\r\n        Land[] memory forSaleLands = new Land[](landCounter);\r\n        uint256 count = 0;\r\n\r\n        for (uint256 i = 1; i <= landCounter; i++) {\r\n            if (lands[i].isForSale) {\r\n                forSaleLands[count] = lands[i];\r\n                count++;\r\n            }\r\n        }\r\n\r\n        // Resize array to actual count\r\n        Land[] memory result = new Land[](count);\r\n        for (uint256 i = 0; i < count; i++) {\r\n            result[i] = forSaleLands[i];\r\n        }\r\n\r\n        return result;\r\n    }\r\n\r\n    // Internal function to remove land from owner's list\r\n    function _removeLandFromOwner(address _owner, uint256 _landId) internal {\r\n        uint256[] storage ownerLands = ownedLands[_owner];\r\n        for (uint256 i = 0; i < ownerLands.length; i++) {\r\n            if (ownerLands[i] == _landId) {\r\n                ownerLands[i] = ownerLands[ownerLands.length - 1];\r\n                ownerLands.pop();\r\n                break;\r\n            }\r\n        }\r\n    }\r\n}",
  "sourcePath": "C:\\Users\\krpra\\Desktop\\DApp\\land-registry-dapp\\contracts\\LandRegistry.sol",
  "compiler": {
    "name": "solc",
    "version": "0.8.0+commit.c7dfd78e.Emscripten.clang"
  },
  "schemaVersion": "3.4.16",
  "updatedAt": "2025-01-30T09:11:00.977Z",
  "networkType": "ethereum",
  "devdoc": {
    "kind": "dev",
    "methods": {},
    "version": 1
  },
  "userdoc": {
    "kind": "user",
    "methods": {},
    "version": 1
  }
}